{
  "contractName": "MinhaMoeda",
  "abi": [
    {
      "constant": true,
      "inputs": [],
      "name": "simbolo",
      "outputs": [
        {
          "name": "",
          "type": "string"
        }
      ],
      "payable": false,
      "stateMutability": "view",
      "type": "function",
      "signature": "0x0de82bae"
    },
    {
      "constant": true,
      "inputs": [],
      "name": "nome",
      "outputs": [
        {
          "name": "",
          "type": "string"
        }
      ],
      "payable": false,
      "stateMutability": "view",
      "type": "function",
      "signature": "0x2deb124b"
    },
    {
      "constant": true,
      "inputs": [
        {
          "name": "",
          "type": "address"
        }
      ],
      "name": "balanco",
      "outputs": [
        {
          "name": "",
          "type": "uint256"
        }
      ],
      "payable": false,
      "stateMutability": "view",
      "type": "function",
      "signature": "0x71364692"
    },
    {
      "constant": true,
      "inputs": [],
      "name": "padrao",
      "outputs": [
        {
          "name": "",
          "type": "string"
        }
      ],
      "payable": false,
      "stateMutability": "view",
      "type": "function",
      "signature": "0xe541e5e4"
    },
    {
      "inputs": [
        {
          "name": "suprimentoInicial",
          "type": "uint256"
        }
      ],
      "payable": false,
      "stateMutability": "nonpayable",
      "type": "constructor",
      "signature": "constructor"
    },
    {
      "anonymous": false,
      "inputs": [
        {
          "indexed": false,
          "name": "de",
          "type": "address"
        },
        {
          "indexed": false,
          "name": "para",
          "type": "address"
        },
        {
          "indexed": false,
          "name": "quantidade",
          "type": "uint256"
        }
      ],
      "name": "Transferencia",
      "type": "event",
      "signature": "0x1b7e21e9fbba09c8b522cd0648f175bed32718c24534b40660a30d33fd380542"
    },
    {
      "constant": false,
      "inputs": [],
      "name": "moedasRestantes",
      "outputs": [
        {
          "name": "",
          "type": "uint256"
        }
      ],
      "payable": false,
      "stateMutability": "nonpayable",
      "type": "function",
      "signature": "0xb1b90b9b"
    },
    {
      "constant": false,
      "inputs": [
        {
          "name": "de",
          "type": "address"
        },
        {
          "name": "para",
          "type": "address"
        },
        {
          "name": "quantidade",
          "type": "uint256"
        }
      ],
      "name": "transferir",
      "outputs": [
        {
          "name": "success",
          "type": "bool"
        }
      ],
      "payable": false,
      "stateMutability": "nonpayable",
      "type": "function",
      "signature": "0x077d492e"
    }
  ],
  "bytecode": "0x60806040526040805190810160405280600b81526020017f4d696e6861204d6f6564610000000000000000000000000000000000000000008152506000908051906020019061004f9291906101b0565b506040805190810160405280600281526020017f4d4d0000000000000000000000000000000000000000000000000000000000008152506001908051906020019061009b9291906101b0565b506040805190810160405280601081526020017f4d696e6861204d6f6564612076312e3000000000000000000000000000000000815250600290805190602001906100e79291906101b0565b503480156100f457600080fd5b50604051602080610a388339810180604052602081101561011457600080fd5b810190808051906020019092919050505080600460003373ffffffffffffffffffffffffffffffffffffffff1673ffffffffffffffffffffffffffffffffffffffff1681526020019081526020016000208190555033600360006101000a81548173ffffffffffffffffffffffffffffffffffffffff021916908373ffffffffffffffffffffffffffffffffffffffff16021790555050610255565b828054600181600116156101000203166002900490600052602060002090601f016020900481019282601f106101f157805160ff191683800117855561021f565b8280016001018555821561021f579182015b8281111561021e578251825591602001919060010190610203565b5b50905061022c9190610230565b5090565b61025291905b8082111561024e576000816000905550600101610236565b5090565b90565b6107d4806102646000396000f3fe608060405260043610610078576000357c0100000000000000000000000000000000000000000000000000000000900463ffffffff168063077d492e1461007d5780630de82bae146101105780632deb124b146101a05780637136469214610230578063b1b90b9b14610295578063e541e5e4146102c0575b600080fd5b34801561008957600080fd5b506100f6600480360360608110156100a057600080fd5b81019080803573ffffffffffffffffffffffffffffffffffffffff169060200190929190803573ffffffffffffffffffffffffffffffffffffffff16906020019092919080359060200190929190505050610350565b604051808215151515815260200191505060405180910390f35b34801561011c57600080fd5b5061012561054d565b6040518080602001828103825283818151815260200191508051906020019080838360005b8381101561016557808201518184015260208101905061014a565b50505050905090810190601f1680156101925780820380516001836020036101000a031916815260200191505b509250505060405180910390f35b3480156101ac57600080fd5b506101b56105eb565b6040518080602001828103825283818151815260200191508051906020019080838360005b838110156101f55780820151818401526020810190506101da565b50505050905090810190601f1680156102225780820380516001836020036101000a031916815260200191505b509250505060405180910390f35b34801561023c57600080fd5b5061027f6004803603602081101561025357600080fd5b81019080803573ffffffffffffffffffffffffffffffffffffffff169060200190929190505050610689565b6040518082815260200191505060405180910390f35b3480156102a157600080fd5b506102aa6106a1565b6040518082815260200191505060405180910390f35b3480156102cc57600080fd5b506102d561070a565b6040518080602001828103825283818151815260200191508051906020019080838360005b838110156103155780820151818401526020810190506102fa565b50505050905090810190601f1680156103425780820380516001836020036101000a031916815260200191505b509250505060405180910390f35b6000600460008573ffffffffffffffffffffffffffffffffffffffff1673ffffffffffffffffffffffffffffffffffffffff168152602001908152602001600020548211151515610409576040517f08c379a000000000000000000000000000000000000000000000000000000000815260040180806020018281038252600c8152602001807f53656d2062616c616ec3a76f000000000000000000000000000000000000000081525060200191505060405180910390fd5b81600460008673ffffffffffffffffffffffffffffffffffffffff1673ffffffffffffffffffffffffffffffffffffffff1681526020019081526020016000206000828254039250508190555081600460008573ffffffffffffffffffffffffffffffffffffffff1673ffffffffffffffffffffffffffffffffffffffff168152602001908152602001600020600082825401925050819055507f1b7e21e9fbba09c8b522cd0648f175bed32718c24534b40660a30d33fd380542848484604051808473ffffffffffffffffffffffffffffffffffffffff1673ffffffffffffffffffffffffffffffffffffffff1681526020018373ffffffffffffffffffffffffffffffffffffffff1673ffffffffffffffffffffffffffffffffffffffff168152602001828152602001935050505060405180910390a1600190509392505050565b60018054600181600116156101000203166002900480601f0160208091040260200160405190810160405280929190818152602001828054600181600116156101000203166002900480156105e35780601f106105b8576101008083540402835291602001916105e3565b820191906000526020600020905b8154815290600101906020018083116105c657829003601f168201915b505050505081565b60008054600181600116156101000203166002900480601f0160208091040260200160405190810160405280929190818152602001828054600181600116156101000203166002900480156106815780601f1061065657610100808354040283529160200191610681565b820191906000526020600020905b81548152906001019060200180831161066457829003601f168201915b505050505081565b60046020528060005260406000206000915090505481565b600060046000600360009054906101000a900473ffffffffffffffffffffffffffffffffffffffff1673ffffffffffffffffffffffffffffffffffffffff1673ffffffffffffffffffffffffffffffffffffffff16815260200190815260200160002054905090565b60028054600181600116156101000203166002900480601f0160208091040260200160405190810160405280929190818152602001828054600181600116156101000203166002900480156107a05780601f10610775576101008083540402835291602001916107a0565b820191906000526020600020905b81548152906001019060200180831161078357829003601f168201915b50505050508156fea165627a7a72305820ca4cc8d0f60d019ad5c8782455016e6c7fdcaf8cea2ab1dd09d9f8180f9d73c50029",
  "source": "pragma solidity ^0.5.0;\n\ncontract MinhaMoeda {\n\tstring public nome = 'Minha Moeda';\n\tstring public simbolo = 'MM';\n\tstring public padrao = 'Minha Moeda v1.0';\n\taddress administrador;\n\n\t// lista com o balanço de cada endereço\n\tmapping(address => uint256) public balanco;\n\t// lista do quanto posso tranferir para cada endereço\n\n\tevent Transferencia(address de, address para, uint256 quantidade);\n\n\t// ao construir o dono do contrato recebe todos os tokens\n\tconstructor (uint256 suprimentoInicial) public {\n\t\tbalanco[msg.sender] = suprimentoInicial;\n\t\tadministrador = msg.sender;\n\t}\n\n\tfunction moedasRestantes() public returns (uint256) {\n\t\treturn balanco[administrador];\n\t}\n\n\tfunction transferir(address de, address para, uint256 quantidade) public returns (bool success) {\n\t\t// valida que o emissor tenha os tokens\n\t\trequire(quantidade <= balanco[de], 'Sem balanço');\n\t\t// removendo os tokens do emissor\n\t\tbalanco[de] -= quantidade;\n\t\t// adicionando os tokens ao novo endereço\n\t\tbalanco[para] += quantidade;\n\n\t\temit Transferencia(de, para, quantidade);\n\n\t\t// retorno caso haja sucesso\n\t\treturn true;\n\t}\n\n}\n",
  "sourcePath": "/home/tutorial-erc20/contracts/MinhaMoeda.sol",
  "compiler": {
    "name": "solc",
    "version": "0.5.0+commit.1d4f565a.Emscripten.clang"
  },
  "schemaVersion": "3.0.1",
  "updatedAt": "2020-02-20T19:33:52.145Z",
  "devdoc": {
    "methods": {}
  },
  "userdoc": {
    "methods": {}
  }
}