{
  "contractName": "VendaDaMinhaMoeda",
  "abi": [
    {
      "constant": true,
      "inputs": [],
      "name": "tokenPreco",
      "outputs": [
        {
          "name": "",
          "type": "uint256"
        }
      ],
      "payable": false,
      "stateMutability": "view",
      "type": "function",
      "signature": "0x22fa6df0"
    },
    {
      "constant": true,
      "inputs": [],
      "name": "tokensVendidos",
      "outputs": [
        {
          "name": "",
          "type": "uint256"
        }
      ],
      "payable": false,
      "stateMutability": "view",
      "type": "function",
      "signature": "0x5d8d223a"
    },
    {
      "constant": true,
      "inputs": [],
      "name": "contratoMoeda",
      "outputs": [
        {
          "name": "",
          "type": "address"
        }
      ],
      "payable": false,
      "stateMutability": "view",
      "type": "function",
      "signature": "0x76c96419"
    },
    {
      "inputs": [
        {
          "name": "contrato",
          "type": "address"
        },
        {
          "name": "preco",
          "type": "uint256"
        }
      ],
      "payable": false,
      "stateMutability": "nonpayable",
      "type": "constructor",
      "signature": "constructor"
    },
    {
      "anonymous": false,
      "inputs": [
        {
          "indexed": false,
          "name": "para",
          "type": "address"
        },
        {
          "indexed": false,
          "name": "quantidade",
          "type": "uint256"
        }
      ],
      "name": "Venda",
      "type": "event",
      "signature": "0xc17506c141e0b262b564a210c78a69b8bea58eef591733d994e4a61c5d07ca28"
    },
    {
      "constant": false,
      "inputs": [
        {
          "name": "numeroDeTokens",
          "type": "uint256"
        }
      ],
      "name": "comprarTokens",
      "outputs": [],
      "payable": true,
      "stateMutability": "payable",
      "type": "function",
      "signature": "0x1afd64e2"
    },
    {
      "constant": false,
      "inputs": [],
      "name": "encerraVenda",
      "outputs": [],
      "payable": true,
      "stateMutability": "payable",
      "type": "function",
      "signature": "0x336b0d10"
    }
  ],
  "bytecode": "0x608060405234801561001057600080fd5b506040516040806107c58339810180604052604081101561003057600080fd5b810190808051906020019092919080519060200190929190505050336000806101000a81548173ffffffffffffffffffffffffffffffffffffffff021916908373ffffffffffffffffffffffffffffffffffffffff16021790555081600160006101000a81548173ffffffffffffffffffffffffffffffffffffffff021916908373ffffffffffffffffffffffffffffffffffffffff1602179055508060028190555050506106e1806100e46000396000f3fe60806040526004361061006d576000357c0100000000000000000000000000000000000000000000000000000000900463ffffffff1680631afd64e21461007257806322fa6df0146100a0578063336b0d10146100cb5780635d8d223a146100d557806376c9641914610100575b600080fd5b61009e6004803603602081101561008857600080fd5b8101908080359060200190929190505050610157565b005b3480156100ac57600080fd5b506100b56105a7565b6040518082815260200191505060405180910390f35b6100d36105ad565b005b3480156100e157600080fd5b506100ea610689565b6040518082815260200191505060405180910390f35b34801561010c57600080fd5b5061011561068f565b604051808273ffffffffffffffffffffffffffffffffffffffff1673ffffffffffffffffffffffffffffffffffffffff16815260200191505060405180910390f35b6002548102341415156101d2576040517f08c379a00000000000000000000000000000000000000000000000000000000081526004018080602001828103825260128152602001807f53656d2076616c6f72206465204574686572000000000000000000000000000081525060200191505060405180910390fd5b80600160009054906101000a900473ffffffffffffffffffffffffffffffffffffffff1673ffffffffffffffffffffffffffffffffffffffff1663713646926000809054906101000a900473ffffffffffffffffffffffffffffffffffffffff166040518263ffffffff167c0100000000000000000000000000000000000000000000000000000000028152600401808273ffffffffffffffffffffffffffffffffffffffff1673ffffffffffffffffffffffffffffffffffffffff16815260200191505060206040518083038186803b1580156102af57600080fd5b505afa1580156102c3573d6000803e3d6000fd5b505050506040513d60208110156102d957600080fd5b810190808051906020019092919050505010151515610360576040517f08c379a00000000000000000000000000000000000000000000000000000000081526004018080602001828103825260138152602001807f436f6e747261746f2073656d20546f6b656e730000000000000000000000000081525060200191505060405180910390fd5b600160009054906101000a900473ffffffffffffffffffffffffffffffffffffffff1673ffffffffffffffffffffffffffffffffffffffff1663077d492e6000809054906101000a900473ffffffffffffffffffffffffffffffffffffffff1633846040518463ffffffff167c0100000000000000000000000000000000000000000000000000000000028152600401808473ffffffffffffffffffffffffffffffffffffffff1673ffffffffffffffffffffffffffffffffffffffff1681526020018373ffffffffffffffffffffffffffffffffffffffff1673ffffffffffffffffffffffffffffffffffffffff1681526020018281526020019350505050602060405180830381600087803b15801561047a57600080fd5b505af115801561048e573d6000803e3d6000fd5b505050506040513d60208110156104a457600080fd5b81019080805190602001909291905050501515610529576040517f08c379a00000000000000000000000000000000000000000000000000000000081526004018080602001828103825260138152602001807f4572726f7220616f207472616e7366657269720000000000000000000000000081525060200191505060405180910390fd5b806003600082825401925050819055507fc17506c141e0b262b564a210c78a69b8bea58eef591733d994e4a61c5d07ca283382604051808373ffffffffffffffffffffffffffffffffffffffff1673ffffffffffffffffffffffffffffffffffffffff1681526020018281526020019250505060405180910390a150565b60025481565b6000809054906101000a900473ffffffffffffffffffffffffffffffffffffffff1673ffffffffffffffffffffffffffffffffffffffff163373ffffffffffffffffffffffffffffffffffffffff1614151561060857600080fd5b6000809054906101000a900473ffffffffffffffffffffffffffffffffffffffff1673ffffffffffffffffffffffffffffffffffffffff166108fc3073ffffffffffffffffffffffffffffffffffffffff16319081150290604051600060405180830381858888f19350505050158015610686573d6000803e3d6000fd5b50565b60035481565b600160009054906101000a900473ffffffffffffffffffffffffffffffffffffffff168156fea165627a7a723058201275c2cc890db5ed8cab43f53ab377bfefabfc48f4250c88714ea4a94b9c40d00029",
  "source": "pragma solidity ^0.5.0;\n\nimport \"./MinhaMoeda.sol\";\n\ncontract VendaDaMinhaMoeda {\n\taddress payable administrador;\n\tMinhaMoeda public contratoMoeda;\n\tuint256 public tokenPreco;\n\tuint256 public tokensVendidos;\n\n\tconstructor (MinhaMoeda contrato, uint256 preco) public {\n\t\tadministrador = msg.sender;\n\t\tcontratoMoeda = contrato;\n\t\ttokenPreco = preco;\n\t}\n\n\tevent Venda(address para, uint256 quantidade);\n\n\tfunction comprarTokens(uint256 numeroDeTokens) public payable {\n\t\t// valido se o Ether bate com o valor d compra\n\t\trequire(msg.value == (numeroDeTokens * tokenPreco), 'Sem valor de Ether');\n\t\t// valido se o contrato tem o número de tokens\n\t\trequire(contratoMoeda.balanco(administrador) >= numeroDeTokens, 'Contrato sem Tokens');\n\t\t// transfiro os tokens para o comprador\n\t\trequire(contratoMoeda.transferir(administrador, msg.sender, numeroDeTokens), 'Error ao transferir');\n\n\t\t// acumulo o tokens vendidos\n\t\ttokensVendidos += numeroDeTokens;\n\n\t\temit Venda(msg.sender, numeroDeTokens);\n\t}\n\n\tfunction encerraVenda() public payable {\n\t\t// valido se é o administrador\n\t\trequire(msg.sender == administrador);\n\t\t// transfiro o Ether arrecadado para o administrador\n\t\t// address(this) é o endereço do contrato\n\t\t// balance é o Ether que o contrato recebeu\n\t\tadministrador.transfer(address(this).balance);\n\t}\n}\n",
  "sourcePath": "/home/tutorial-erc20/contracts/VendaDaMinhaMoeda.sol",
  "compiler": {
    "name": "solc",
    "version": "0.5.0+commit.1d4f565a.Emscripten.clang"
  },
  "schemaVersion": "3.0.1",
  "updatedAt": "2020-02-20T19:33:52.147Z",
  "devdoc": {
    "methods": {}
  },
  "userdoc": {
    "methods": {}
  }
}